{"abi":[{"type":"function","name":"computeAddress","inputs":[{"name":"_token","type":"address","internalType":"address"},{"name":"_owner","type":"address","internalType":"address"},{"name":"_merkleRoot","type":"bytes32","internalType":"bytes32"},{"name":"_merkleDataUri","type":"string","internalType":"string"},{"name":"_salt","type":"bytes32","internalType":"bytes32"}],"outputs":[{"name":"","type":"address","internalType":"address"}],"stateMutability":"view"},{"type":"function","name":"deployDropZone","inputs":[{"name":"_token","type":"address","internalType":"address"},{"name":"_owner","type":"address","internalType":"address"},{"name":"_merkleRoot","type":"bytes32","internalType":"bytes32"},{"name":"_merkleDataUri","type":"string","internalType":"string"},{"name":"_salt","type":"bytes32","internalType":"bytes32"}],"outputs":[{"name":"","type":"address","internalType":"address"}],"stateMutability":"nonpayable"},{"type":"function","name":"deployedDrops","inputs":[{"name":"","type":"address","internalType":"address"},{"name":"","type":"uint256","internalType":"uint256"}],"outputs":[{"name":"","type":"address","internalType":"address"}],"stateMutability":"view"},{"type":"function","name":"getDeployedDrops","inputs":[{"name":"_deployer","type":"address","internalType":"address"}],"outputs":[{"name":"","type":"address[]","internalType":"address[]"}],"stateMutability":"view"},{"type":"event","name":"DropDeployed","inputs":[{"name":"deployer","type":"address","indexed":true,"internalType":"address"},{"name":"dropAddress","type":"address","indexed":false,"internalType":"address"},{"name":"salt","type":"bytes32","indexed":false,"internalType":"bytes32"}],"anonymous":false}],"bytecode":{"object":"0x6080604052348015600f57600080fd5b50611bd78061001f6000396000f3fe608060405234801561001057600080fd5b506004361061004c5760003560e01c80634b2222f314610051578063721c6dab14610081578063a9ffe14e146100a1578063d791c19f146100b4575b600080fd5b61006461005f366004610389565b6100c7565b6040516001600160a01b0390911681526020015b60405180910390f35b61009461008f3660046103b3565b6100ff565b60405161007891906103d5565b6100646100af366004610437565b610173565b6100646100c2366004610437565b61023e565b600060205281600052604060002081815481106100e357600080fd5b6000918252602090912001546001600160a01b03169150829050565b6001600160a01b0381166000908152602081815260409182902080548351818402810184019094528084526060939283018282801561016757602002820191906000526020600020905b81546001600160a01b03168152600190910190602001808311610149575b50505050509050919050565b6000806040518060200161018690610360565b601f1982820381018352601f9091011660408190526101af908990899089908990602001610547565b60408051601f19818403018152908290526101cd929160200161059f565b60408051808303601f1901815282825280516020918201206001600160f81b0319828501523060601b6bffffffffffffffffffffffff191660218501526035840196909652605580840196909652815180840390960186526075909201905283519301929092209695505050505050565b60008061024e87878787876102d1565b6001600160a01b0387811660008181526020818152604080832080546001810182559084529282902090920180546001600160a01b031916948616948517905581519384528301879052929350917f2ef399e5aa7874679b95a6313febb98e399aeea7eb3777598ad2f27fcbe16d20910160405180910390a29695505050505050565b600080604051806020016102e490610360565b601f1982820381018352601f90910116604081905261030d908990899089908990602001610547565b60408051601f198184030181529082905261032b929160200161059f565b60405160208183030381529060405290506000838251602084016000f59050803b61035557600080fd5b979650505050505050565b6115d3806105cf83390190565b80356001600160a01b038116811461038457600080fd5b919050565b6000806040838503121561039c57600080fd5b6103a58361036d565b946020939093013593505050565b6000602082840312156103c557600080fd5b6103ce8261036d565b9392505050565b602080825282518282018190526000918401906040840190835b818110156104165783516001600160a01b03168352602093840193909201916001016103ef565b509095945050505050565b634e487b7160e01b600052604160045260246000fd5b600080600080600060a0868803121561044f57600080fd5b6104588661036d565b94506104666020870161036d565b935060408601359250606086013567ffffffffffffffff81111561048957600080fd5b8601601f8101881361049a57600080fd5b803567ffffffffffffffff8111156104b4576104b4610421565b604051601f8201601f19908116603f0116810167ffffffffffffffff811182821017156104e3576104e3610421565b6040528181528282016020018a10156104fb57600080fd5b8160208401602083013760009181016020019190915295989497509295608001359392505050565b60005b8381101561053e578181015183820152602001610526565b50506000910152565b60018060a01b038516815260018060a01b038416602082015282604082015260806060820152600082518060808401526105888160a0850160208701610523565b601f01601f19169190910160a00195945050505050565b600083516105b1818460208801610523565b8351908301906105c5818360208801610523565b0194935050505056fe608060405234801561001057600080fd5b506040516115d33803806115d383398101604081905261002f91610157565b826001600160a01b03811661005e57604051631e4fbdf760e01b81526000600482015260240160405180910390fd5b610067816100d5565b506000805460ff60a01b19169055600180546001600160a01b0319166001600160a01b038616179055600282905560036100a182826102d8565b5060405182907edb3c3000e0daba66ff2cd45c4046241d3a2a7831272a1d11d57bd2ed976c2c90600090a250505050610396565b600080546001600160a01b038381166001600160a01b0319831681178455604051919092169283917f8be0079c531659141344cd1fd0a4f28419497f9722a3daafe3b4186f6b6457e09190a35050565b80516001600160a01b038116811461013c57600080fd5b919050565b634e487b7160e01b600052604160045260246000fd5b6000806000806080858703121561016d57600080fd5b61017685610125565b935061018460208601610125565b6040860151606087015191945092506001600160401b038111156101a757600080fd5b8501601f810187136101b857600080fd5b80516001600160401b038111156101d1576101d1610141565b604051601f8201601f19908116603f011681016001600160401b03811182821017156101ff576101ff610141565b60405281815282820160200189101561021757600080fd5b60005b828110156102365760208185018101518383018201520161021a565b5060006020838301015280935050505092959194509250565b600181811c9082168061026357607f821691505b60208210810361028357634e487b7160e01b600052602260045260246000fd5b50919050565b601f8211156102d357806000526020600020601f840160051c810160208510156102b05750805b601f840160051c820191505b818110156102d057600081556001016102bc565b50505b505050565b81516001600160401b038111156102f1576102f1610141565b610305816102ff845461024f565b84610289565b6020601f82116001811461033957600083156103215750848201515b600019600385901b1c1916600184901b1784556102d0565b600084815260208120601f198516915b828110156103695787850151825560209485019460019092019101610349565b50848210156103875786840151600019600387901b60f8161c191681555b50505050600190811b01905550565b61122e806103a56000396000f3fe608060405234801561001057600080fd5b50600436106101215760003560e01c80638da5cb5b116100ad578063e0ff5b1211610071578063e0ff5b1214610276578063e48034b51461028b578063e79faa581461029e578063f2fde38b146102b1578063fc0c546a146102c457600080fd5b80638da5cb5b146101ec578063a195b69c14610211578063aa2945db1461023d578063b2118a8d14610250578063cfb4a1fc1461026357600080fd5b80635c975abb116100f45780635c975abb1461017d5780636da663551461019b578063715018a6146101ae57806373b2e80e146101b65780637df325e1146101d957600080fd5b8063275dae48146101265780632eb4a7ab1461013b57806330ebd3fc146101575780633f5c76461461016a575b600080fd5b610139610134366004610cf1565b6102d7565b005b61014460025481565b6040519081526020015b60405180910390f35b610139610165366004610cf1565b6103a3565b610139610178366004610d69565b61049d565b600054600160a01b900460ff165b604051901515815260200161014e565b6101396101a9366004610e51565b6105b7565b6101396105fb565b61018b6101c4366004610e93565b60046020526000908152604090205460ff1681565b6101396101e7366004610eae565b61060f565b6000546001600160a01b03165b6040516001600160a01b03909116815260200161014e565b61018b61021f366004610e93565b6001600160a01b031660009081526004602052604090205460ff1690565b61018b61024b366004610eeb565b610684565b61013961025e366004610eae565b610712565b610139610271366004610eeb565b610793565b61027e6107a7565b60405161014e9190610f45565b610139610299366004610f93565b610835565b6101396102ac366004610e51565b61087f565b6101396102bf366004610e93565b6108c3565b6001546101f9906001600160a01b031681565b6102df610901565b60015460405163a9059cbb60e01b81526001600160a01b038381166004830152602482018590529091169063a9059cbb906044016020604051808303816000875af1158015610332573d6000803e3d6000fd5b505050506040513d601f19601f820116820180604052508101906103569190610fdf565b61039f5760405162461bcd60e51b8152602060048201526015602482015274151bdad95b881d1c985b9cd9995c8819985a5b1959605a1b60448201526064015b60405180910390fd5b5050565b6103ab610901565b6001546040516323b872dd60e01b81526001600160a01b03838116600483015230602483015260448201859052909116906323b872dd906064016020604051808303816000875af1158015610404573d6000803e3d6000fd5b505050506040513d601f19601f820116820180604052508101906104289190610fdf565b6104655760405162461bcd60e51b815260206004820152600e60248201526d119d5b991a5b99c819985a5b195960921b6044820152606401610396565b6040518281527f61d1787896dfd1a6b3a32acc98452f04ce057666fd4bea2cf39bc30fc6087eaa906020015b60405180910390a15050565b6104a561092e565b84831480156104b357508481145b6104f85760405162461bcd60e51b8152602060048201526016602482015275082e4e4c2f240d8cadccee8d0e640dad2e6dac2e8c6d60531b6044820152606401610396565b8460005b818110156105785761057088888381811061051957610519611001565b905060200201602081019061052e9190610e93565b87878481811061054057610540611001565b9050602002013586868581811061055957610559611001565b905060200281019061056b9190611017565b610959565b6001016104fc565b5060405181815233907f49f7836d82e2c4817c665a054deb06795dca76ad35055b19a2713d714040d8cd9060200160405180910390a250505050505050565b6105bf610901565b6105c7610b34565b7fba92f4c0f30e5e812772be893ed1ad3fd45bb372fcb14cd54da3a7e0e37887c06001838360405161049193929190611061565b610603610901565b61060d6000610b94565b565b610617610901565b604051632142170760e11b81523060048201526001600160a01b038381166024830152604482018390528416906342842e0e90606401600060405180830381600087803b15801561066757600080fd5b505af115801561067b573d6000803e3d6000fd5b50505050505050565b6040516bffffffffffffffffffffffff19606086901b166020820152603481018490526000908190605401604051602081830303815290604052805190602001209050610708848480806020026020016040519081016040528093929190818152602001838360200280828437600092019190915250506002549150849050610be4565b9695505050505050565b61071a610901565b60405163a9059cbb60e01b81526001600160a01b0383811660048301526024820183905284169063a9059cbb906044016020604051808303816000875af1158015610769573d6000803e3d6000fd5b505050506040513d601f19601f8201168201806040525081019061078d9190610fdf565b50505050565b61079b61092e565b61078d84848484610959565b600380546107b490611099565b80601f01602080910402602001604051908101604052809291908181526020018280546107e090611099565b801561082d5780601f106108025761010080835404028352916020019161082d565b820191906000526020600020905b81548152906001019060200180831161081057829003601f168201915b505050505081565b61083d610901565b6002839055600361084f828483611138565b5060405183907edb3c3000e0daba66ff2cd45c4046241d3a2a7831272a1d11d57bd2ed976c2c90600090a2505050565b610887610901565b61088f610bfa565b7fba92f4c0f30e5e812772be893ed1ad3fd45bb372fcb14cd54da3a7e0e37887c06000838360405161049193929190611061565b6108cb610901565b6001600160a01b0381166108f557604051631e4fbdf760e01b815260006004820152602401610396565b6108fe81610b94565b50565b6000546001600160a01b0316331461060d5760405163118cdaa760e01b8152336004820152602401610396565b600054600160a01b900460ff161561060d5760405163d93c066560e01b815260040160405180910390fd5b6001600160a01b03841660009081526004602052604090205460ff16156109c25760405162461bcd60e51b815260206004820152601760248201527f41697264726f7020616c726561647920636c61696d65640000000000000000006044820152606401610396565b6109ce84848484610684565b610a115760405162461bcd60e51b815260206004820152601460248201527324b73b30b634b21036b2b935b63290383937b7b360611b6044820152606401610396565b6001600160a01b03848116600081815260046020819052604091829020805460ff1916600190811790915554915163a9059cbb60e01b815290810192909252602482018690529091169063a9059cbb906044016020604051808303816000875af1158015610a83573d6000803e3d6000fd5b505050506040513d601f19601f82011682018060405250810190610aa79190610fdf565b610aeb5760405162461bcd60e51b8152602060048201526015602482015274151bdad95b881d1c985b9cd9995c8819985a5b1959605a1b6044820152606401610396565b836001600160a01b03167f896e034966eaaf1adc54acc0f257056febbd300c9e47182cf761982cf1f5e43084604051610b2691815260200190565b60405180910390a250505050565b610b3c61092e565b6000805460ff60a01b1916600160a01b1790557f62e78cea01bee320cd4e420270b5ea74000d11b0c9f74754ebdbfc544b05a258610b773390565b6040516001600160a01b03909116815260200160405180910390a1565b600080546001600160a01b038381166001600160a01b0319831681178455604051919092169283917f8be0079c531659141344cd1fd0a4f28419497f9722a3daafe3b4186f6b6457e09190a35050565b600082610bf18584610c36565b14949350505050565b610c02610c79565b6000805460ff60a01b191690557f5db9ee0a495bf2e6ff9c91a7834c1ba4fdd244a5e8aa4e537bd38aeae4b073aa33610b77565b600081815b8451811015610c7157610c6782868381518110610c5a57610c5a611001565b6020026020010151610ca3565b9150600101610c3b565b509392505050565b600054600160a01b900460ff1661060d57604051638dfc202b60e01b815260040160405180910390fd5b6000818310610cbf576000828152602084905260409020610cce565b60008381526020839052604090205b9392505050565b80356001600160a01b0381168114610cec57600080fd5b919050565b60008060408385031215610d0457600080fd5b82359150610d1460208401610cd5565b90509250929050565b60008083601f840112610d2f57600080fd5b50813567ffffffffffffffff811115610d4757600080fd5b6020830191508360208260051b8501011115610d6257600080fd5b9250929050565b60008060008060008060608789031215610d8257600080fd5b863567ffffffffffffffff811115610d9957600080fd5b610da589828a01610d1d565b909750955050602087013567ffffffffffffffff811115610dc557600080fd5b610dd189828a01610d1d565b909550935050604087013567ffffffffffffffff811115610df157600080fd5b610dfd89828a01610d1d565b979a9699509497509295939492505050565b60008083601f840112610e2157600080fd5b50813567ffffffffffffffff811115610e3957600080fd5b602083019150836020828501011115610d6257600080fd5b60008060208385031215610e6457600080fd5b823567ffffffffffffffff811115610e7b57600080fd5b610e8785828601610e0f565b90969095509350505050565b600060208284031215610ea557600080fd5b610cce82610cd5565b600080600060608486031215610ec357600080fd5b610ecc84610cd5565b9250610eda60208501610cd5565b929592945050506040919091013590565b60008060008060608587031215610f0157600080fd5b610f0a85610cd5565b935060208501359250604085013567ffffffffffffffff811115610f2d57600080fd5b610f3987828801610d1d565b95989497509550505050565b602081526000825180602084015260005b81811015610f735760208186018101516040868401015201610f56565b506000604082850101526040601f19601f83011684010191505092915050565b600080600060408486031215610fa857600080fd5b83359250602084013567ffffffffffffffff811115610fc657600080fd5b610fd286828701610e0f565b9497909650939450505050565b600060208284031215610ff157600080fd5b81518015158114610cce57600080fd5b634e487b7160e01b600052603260045260246000fd5b6000808335601e1984360301811261102e57600080fd5b83018035915067ffffffffffffffff82111561104957600080fd5b6020019150600581901b3603821315610d6257600080fd5b831515815260406020820152816040820152818360608301376000818301606090810191909152601f909201601f1916010192915050565b600181811c908216806110ad57607f821691505b6020821081036110cd57634e487b7160e01b600052602260045260246000fd5b50919050565b634e487b7160e01b600052604160045260246000fd5b601f82111561113357806000526020600020601f840160051c810160208510156111105750805b601f840160051c820191505b81811015611130576000815560010161111c565b50505b505050565b67ffffffffffffffff831115611150576111506110d3565b6111648361115e8354611099565b836110e9565b6000601f84116001811461119857600085156111805750838201355b600019600387901b1c1916600186901b178355611130565b600083815260209020601f19861690835b828110156111c957868501358255602094850194600190920191016111a9565b50868210156111e65760001960f88860031b161c19848701351681555b505060018560011b018355505050505056fea2646970667358221220a0490b117c4a90e8becef529cb43db9077350d8bb5eeb61dfae58e90d1eb1a6b64736f6c634300081a0033a264697066735822122023e41a7f4d83e1b62a1cd4abed964c450284fbf466a27d4bed48a4b75f397aca64736f6c634300081a0033","linkReferences":{}},"methodIdentifiers":{"computeAddress(address,address,bytes32,string,bytes32)":"a9ffe14e","deployDropZone(address,address,bytes32,string,bytes32)":"d791c19f","deployedDrops(address,uint256)":"4b2222f3","getDeployedDrops(address)":"721c6dab"},"id":49}